:020000040800F2
:10000000005000200D0F0008B10B0008B90B0008CC
:10001000C10B0008C90B0008D10B0008000000004C
:10002000000000000000000000000000D90B0008E4
:10003000E50B000800000000F10B0008FD0B0008B4
:10004000550F0008550F0008550F0008550F000800
:10005000550F0008550F0008550F0008550F0008F0
:10006000550F0008550F0008550F0008550F0008E0
:10007000550F0008550F0008550F0008550F0008D0
:10008000550F0008550F0008550F0008550F0008C0
:10009000550F0008550F0008550F0008550F0008B0
:1000A000550F0008550F0008550F0008550F0008A0
:1000B000550F0008550F0008550F0008550F000890
:1000C000550F0008550F0008550F0008550F000880
:1000D000550F0008550F0008550F0008550F000870
:1000E000550F0008550F0008550F000800000000CC
:1000F0000000000000000000000000000000000000
:0C01000000000000000000005FF808F1A3
:10010C0010B5054C237833B9044B13B10448AFF345
:10011C0000800123237010BD10000020000000009F
:10012C007C33000808B5034B1BB103490348AFF3FC
:10013C00008008BD00000000140000207C33000883
:10014C0080F0004002E000BF81F0004142001FBF80
:10015C005FEA410392EA030F7FEA226C7FEA236C89
:10016C006AD04FEA1262D2EB1363C1BFD21841407E
:10017C0048404140B8BF5B42192B88BF704710F014
:10018C00004F40F4000020F07F4018BF404211F0B7
:10019C00004F41F4000121F07F4118BF494292EA1F
:1001AC00030F3FD0A2F1010241FA03FC10EB0C004B
:1001BC00C3F1200301FA03F100F0004302D54942D8
:1001CC0060EB4000B0F5000F13D3B0F1807F06D385
:1001DC0040084FEA310102F10102FE2A51D2B1F17D
:1001EC00004F40EBC25008BF20F0010040EA030072
:1001FC007047490040EB0000013A28BFB0F5000FF2
:10020C00EDD2B0FA80FCACF1080CB2EB0C0200FAA7
:10021C000CF0AABF00EBC25052421843BCBFD040F6
:10022C001843704792F0000F81F4000106BF80F470
:10023C0000000132013BB5E74FEA41037FEA226C33
:10024C0018BF7FEA236C21D092EA030F04D092F0FE
:10025C00000F08BF0846704790EA010F1CBF002032
:10026C00704712F07F4F04D1400028BF40F000408F
:10027C00704712F100723CBF00F50000704700F0AF
:10028C00004343F0FE4040F4000070477FEA2262D6
:10029C0016BF08467FEA23630146420206BF5FEAA7
:1002AC00412390EA010F40F4800070474FF00003A7
:1002BC0004E000BF10F0004348BF40425FEA000C6E
:1002CC0008BF704743F0964301464FF000001CE016
:1002DC0050EA010208BF70474FF000030AE000BF6C
:1002EC0050EA010208BF704711F0004302D54042AA
:1002FC0061EB41015FEA010C02BF8446014600201C
:10030C0043F0B64308BFA3F18053A3F50003BCFA36
:10031C008CF2083AA3EBC25310DB01FA02FC6344E3
:10032C0000FA02FCC2F12002BCF1004F20FA02F2EA
:10033C0043EB020008BF20F00100704702F12002DD
:10034C0001FA02FCC2F1200250EA4C0021FA02F23E
:10035C0043EB020008BF20EADC7070474FF0FF0C43
:10036C001CEAD0521EBF1CEAD15392EA0C0F93EA3E
:10037C000C0F6FD01A4480EA010C400218BF5FEAE0
:10038C0041211ED04FF0006343EA501043EA511153
:10039C00A0FB01310CF00040B1F5000F3EBF49004D
:1003AC0041EAD3715B0040EA010062F17F02FD2A51
:1003BC001DD8B3F1004F40EBC25008BF20F0010034
:1003CC00704790F0000F0CF0004C08BF49024CEA4B
:1003DC00502040EA51207F3AC2BFD2F1FF0340EADD
:1003EC00C250704740F400004FF00003013A5DDC4E
:1003FC0012F1190FDCBF00F000407047C2F100028F
:10040C00410021FA02F1C2F1200200FA02FC5FEA7B
:10041C00310040F1000053EA4C0308BF20EADC70C5
:10042C00704792F0000F00F0004C02BF400010F437
:10043C00000F013AF9D040EA0C0093F0000F01F0E4
:10044C00004C02BF490011F4000F013BF9D041EA06
:10045C000C018FE70CEAD15392EA0C0F18BF93EA08
:10046C000C0F0AD030F0004C18BF31F0004CD8D132
:10047C0080EA010000F00040704790F0000F17BFB9
:10048C0090F0004F084691F0000F91F0004F14D0FF
:10049C0092EA0C0F01D142020FD193EA0C0F03D157
:1004AC004B0218BF084608D180EA010000F000405A
:1004BC0040F0FE4040F40000704740F0FE4040F435
:1004CC00400070474FF0FF0C1CEAD0521EBF1CEAD4
:1004DC00D15392EA0C0F93EA0C0F69D0A2EB0302F2
:1004EC0080EA010C49024FEA402037D04FF080538C
:1004FC0043EA111143EA10130CF000408B4238BF51
:10050C005B0042F17D024FF4000C8B4224BF5B1A5E
:10051C0040EA0C00B3EB510F24BFA3EB510340EAAC
:10052C005C00B3EB910F24BFA3EB910340EA9C005A
:10053C00B3EBD10F24BFA3EBD10340EADC001B01CA
:10054C0018BF5FEA1C1CE0D1FD2A3FF650AF8B426E
:10055C0040EBC25008BF20F0010070470CF0004C7B
:10056C004CEA50207F32C2BFD2F1FF0340EAC250A6
:10057C00704740F400004FF00003013A37E792F067
:10058C00000F00F0004C02BF400010F4000F013AC5
:10059C00F9D040EA0C0093F0000F01F0004C02BFC0
:1005AC00490011F4000F013BF9D041EA0C0195E729
:1005BC000CEAD15392EA0C0F08D142027FF47DAFC2
:1005CC0093EA0C0F7FF470AF084676E793EA0C0FB2
:1005DC0004D14B023FF44CAF08466EE730F0004CB0
:1005EC0018BF31F0004CCAD130F000427FF45CAF40
:1005FC0031F000437FF43CAF5FE700BF4FF0FF3CAE
:10060C0006E000BF4FF0010C02E000BF4FF0010C00
:10061C004DF804CD4FEA40024FEA41037FEA226CC9
:10062C0018BF7FEA236C11D001B052EA530C18BFEB
:10063C0090EA010F58BFB2EB030088BFC81738BF50
:10064C006FEAE17018BF40F0010070477FEA226C3E
:10065C0002D15FEA402C05D17FEA236CE4D15FEA3A
:10066C00412CE1D05DF8040B704700BF844608466E
:10067C006146FFE70FB5FFF7C9FF002848BF10F12F
:10068C00000F0FBD4DF808EDFFF7F4FF0CBF012074
:10069C0000205DF808FB00BF4DF808EDFFF7EAFFFE
:1006AC0034BF012000205DF808FB00BF4DF808EDB9
:1006BC00FFF7E0FF94BF012000205DF808FB00BFAE
:1006CC004DF808EDFFF7D2FF94BF012000205DF834
:1006DC0008FB00BF4DF808EDFFF7C8FF34BF012041
:1006EC0000205DF808FB00BF4FEA4002B2F1FE4F5C
:1006FC000FD34FF09E03B3EB12620DD94FEA0023D8
:10070C0043F0004310F0004F23FA02F018BF4042B0
:10071C0070474FF00000704712F1610F01D1420297
:10072C0005D110F0004008BF6FF0004070474FF04B
:10073C000000704742000ED2B2F1FE4F0BD34FF0C7
:10074C009E03B3EB126209D44FEA002343F000433B
:10075C0023FA02F070474FF00000704712F1610F5E
:10076C0001D1420202D14FF0FF3070474FF0000030
:10077C00704700BF98B500AF00F0E8FB00F05AF8E6
:10078C0000F036F900F098F80021264801F0D6FA6E
:10079C000021244801F050FE0421224801F0CEFA39
:1007AC000421204801F048FE08211E4801F0C6FA39
:1007BC0008211C4801F040FE1B491C4800F01EFAA1
:1007CC001A4800F045FA194B5B6819491846FFF7AF
:1007DC00C5FD03461A46134B1C681046FFF7AAFFCB
:1007EC0003466363114B9B6811491846FFF7B6FD2E
:1007FC0003461A460B4B1C681046FFF79BFF03463B
:10080C00A3630A4BDB680A491846FFF7A7FD0346AA
:10081C001A46044B1C681046FFF78CFF0346E36333
:10082C0000BFCDE72C0000209A9971417400002084
:10083C000000A04480B590B000AF07F11803282247
:10084C000021184601F069FF3B1D00221A605A6016
:10085C009A60DA601A610223BB610123BB62102328
:10086C00FB6202237B630023BB634FF46013FB63C7
:10087C0007F11803184600F033FE0346002B01D095
:10088C0000F0D8F80F237B600223BB600023FB60D1
:10089C004FF480633B6100237B613B1D02211846B2
:1008AC0001F0A0F80346002B01D000F0C3F800BF04
:1008BC004037BD4680BD000080B592B000AF07F157
:1008CC00400300221A605A6007F1240300221A60C8
:1008DC005A609A60DA601A615A619A613B1D202253
:1008EC000021184601F019FF3F4B404A1A603E4B5D
:1008FC0000225A603C4B60229A603B4B40F2FF4214
:10090C00DA60394B00221A61374B00225A61364BA0
:10091C0000229A61344801F0C1F90346002B01D042
:10092C0000F088F800233B6400237B6407F140034C
:10093C0019462D4801F01EFE0346002B01D000F095
:10094C0079F860237B620023BB620023FB620823DF
:10095C003B6300237B630023BB630023FB6307F132
:10096C00240300221946204801F08AFA0346002B82
:10097C0001D000F05FF807F12403042219461A484D
:10098C0001F07EFA0346002B01D000F053F807F17A
:10099C00240308221946144801F072FA0346002B6E
:1009AC0001D000F047F800237B600023BB600023DC
:1009BC00FB6040233B6100237B614FF40053BB6120
:1009CC0000233B623B1D1946074801F031FE0346EC
:1009DC00002B01D000F02EF8034800F081F800BF86
:1009EC004837BD4680BD00BF2C000020002C0140C4
:1009FC0080B483B000AF0E4B9B690D4A43F00403E7
:100A0C0093610B4B9B6903F004037B607B68084B81
:100A1C009B69074A43F008039361054B9B6903F0FC
:100A2C0008033B603B6800BF0C37BD4680BC704779
:100A3C000010024080B400AF72B600BF00BFFDE7EB
:100A4C0080B485B000AF154B9B69144A43F0010389
:100A5C009361124B9B6903F00103BB60BB680F4BA6
:100A6C00DB690E4A43F08053D3610C4BDB6903F016
:100A7C0080537B607B680A4B5B68FB60FB6823F0F0
:100A8C00E063FB60FB6843F08063FB60044AFB6837
:100A9C00536000BF1437BD4680BC70470010024045
:100AAC000000014080B485B000AF78607B681B68A3
:100ABC00094A93420BD1094B9B69084A43F40063E2
:100ACC009361064B9B6903F40063FB60FB6800BFFA
:100ADC001437BD4680BC7047002C0140001002400A
:100AEC0080B58AB000AF786007F1140300221A6059
:100AFC005A609A60DA607B681B68254A934242D13F
:100B0C00244B9B69234A43F004039361214B9B695B
:100B1C0003F004033B613B691E4B9B691D4A43F088
:100B2C00080393611B4B9B6903F00803FB60FB6894
:100B3C004FF4F0637B610223BB6102233B6207F13C
:100B4C0014031946144800F047FB03237B6102236E
:100B5C00BB6102233B6207F1140319460F4800F0F6
:100B6C003BFB0F4B5B687B627B6A23F0C0037B62B1
:100B7C007B6A43F0E0637B627B6A43F040037B62F9
:100B8C00074A7B6A536000BF2837BD4680BD00BF53
:100B9C00002C01400010024000080140000C0140F4
:100BAC000000014080B400AF00BFFDE780B400AF8F
:100BBC0000BFFDE780B400AF00BFFDE780B400AF1D
:100BCC0000BFFDE780B400AF00BFFDE780B400AF0D
:100BDC0000BFBD4680BC704780B400AF00BFBD46AF
:100BEC0080BC704780B400AF00BFBD4680BC70476E
:100BFC0080B500AF00F0F0F900BF80BD80B582B0C9
:100C0C0000AF786039607B684FF07C52DA607B68AB
:100C1C00DA687B689A607B689A687B685A607B6844
:100C2C003A681A607B681B6808491846FFF74AFC4B
:100C3C0003464FF07C511846FFF790FB03461A46CB
:100C4C007B681A6100BF0837BD4680BDD7B3DD3F56
:100C5C0090B58DB000AF78609C4B7B629C4B1B6851
:100C6C009C491846FFF77AFB0346796A1846FFF74A
:100C7C0075FB03461A46984B1B6819461046FFF73E
:100C8C0065FA03461A46944B1A60934B1B689149BC
:100C9C001846FFF71FFD0346002B09D08E4B1B682F
:100CAC008C491846FFF750FA03461A468A4B1A60CD
:100CBC00894B1B6889491846FFF748FA03463B6283
:100CCC007B681C69386A01F055FD034619462046BD
:100CDC00FFF744FB0346FB617B681C69386A01F033
:100CEC0081FD034619462046FFF738FB0346BB61DE
:100CFC00FB697B614FF03F41F869FFF72FFB03461F
:100D0C001C467749B869FFF729FB0346194620466C
:100D1C00FFF71CFA03463B614FF03F41F869FFF7C0
:100D2C001DFB03461C466E49B869FFF717FB0346CB
:100D3C0019462046FFF708FA0346FB607B69FB6205
:100D4C00F96A3869FFF7C6FC0346002B01D03B69F2
:100D5C00FB62F96AF868FFF7BDFC0346002B01D073
:100D6C00FB68FB627B69BB62B96A3869FFF794FC6C
:100D7C000346002B01D03B69BB62B96AF868FFF7E8
:100D8C008BFC0346002B01D0FB68BB62B96AF86A86
:100D9C00FFF7DCF903464FF07C511846FFF7DEFAFB
:100DAC000346BB60B9687869FFF7CEF903461A466B
:100DBC007B681B6819461046FFF784FB03464FF00F
:100DCC007C511846FFF7C2F903461A467B685A60F5
:100DDC00B9683869FFF7B8F903461A467B681B688F
:100DEC0019461046FFF76EFB03464FF07C51184630
:100DFC00FFF7ACF903461A467B689A60B968F86845
:100E0C00FFF7A2F903461A467B681B681946104681
:100E1C00FFF758FB03464FF07C511846FFF796F945
:100E2C0003461A467B68DA607B685B684FF07E513C
:100E3C001846FFF74FFC0346002B03D07B684FF09E
:100E4C007E525A607B685B684FF000011846FFF7D2
:100E5C0023FC0346002B03D07B684FF000025A6042
:100E6C007B689B684FF07E511846FFF733FC0346B6
:100E7C00002B03D07B684FF07E529A607B689B6896
:100E8C004FF000011846FFF707FC0346002B03D078
:100E9C007B684FF000029A607B68DB684FF07E51F4
:100EAC001846FFF717FC0346002B03D07B684FF066
:100EBC007E52DA607B68DB684FF000011846FFF762
:100ECC00EBFB0346002B0DD110E000BFACC527385F
:100EDC0000000020DB0FC94088000020DB0FC93F59
:100EEC00D7B35D3F7B684FF00002DA6000BF343748
:100EFC00BD4690BD80B400AF00BFBD4680BC7047FE
:100F0C00FFF7F8FF0B480C490C4A002302E0D458B9
:100F1C00C4500433C4188C42F9D3094A094C002339
:100F2C0001E013600432A242FBD301F0FFFBFFF798
:100F3C0021FC7047000000201000002090370008B2
:100F4C001000002090000020FEE7000080B500AFEC
:100F5C00084B1B68074A43F010031360032000F092
:100F6C0007F90F2000F008F8FFF76AFD0023184678
:100F7C0080BD00BF0020024080B582B000AF786019
:100F8C00124B1A68124B1B7819464FF47A73B3FB49
:100F9C00F1F3B2FBF3F3184600F011F90346002B02
:100FAC0001D001230EE07B680F2B0AD80022796850
:100FBC004FF0FF3000F0E7F8064A7B68136000231F
:100FCC0000E0012318460837BD4680BD0400002010
:100FDC000C0000200800002080B400AF054B1B78EB
:100FEC001A46054B1B681344034A136000BFBD46E9
:100FFC0080BC70470C0000208C00002080B400AF37
:10100C00024B1B681846BD4680BC70478C00002004
:10101C0080B485B000AF78607B6803F00703FB6099
:10102C000C4BDB68BB60BA684FF6FF031340BB6028
:10103C00FB681A02BB68134343F0BF6343F40033ED
:10104C00BB60044ABB68D36000BF1437BD4680BC8C
:10105C00704700BF00ED00E080B400AF044BDB68CC
:10106C001B0A03F007031846BD4680BC704700BF3F
:10107C0000ED00E080B483B000AF03463960FB7133
:10108C0097F90730002B0ADB3B68DAB20C4997F969
:10109C0007301201D2B20B4483F800230AE03B68FC
:1010AC00DAB20849FB7903F00F03043B1201D2B208
:1010BC000B441A7600BF0C37BD4680BC704700BF8E
:1010CC0000E100E000ED00E080B489B000AFF86012
:1010DC00B9607A60FB6803F00703FB61FB69C3F13D
:1010EC000703042B28BF0423BB61FB690433062BC5
:1010FC0002D9FB69033B00E000237B614FF0FF3218
:10110C00BB6902FA03F3DA43BB681A407B699A4065
:10111C004FF0FF317B6901FA03F3D9437B680B4035
:10112C00134318462437BD4680BC704780B582B047
:10113C0000AF78607B68013BB3F1807F01D3012362
:10114C000FE00A4A7B68013B53600F214FF0FF30E0
:10115C00FFF790FF054B00229A60044B07221A60A0
:10116C00002318460837BD4680BD00BF10E000E0E4
:10117C0080B582B000AF78607868FFF749FF00BF98
:10118C000837BD4680BD80B586B000AF0346B96058
:10119C007A60FB7300237B61FFF75EFF78617A68EE
:1011AC00B9687869FFF790FF024697F90F3011463E
:1011BC001846FFF75FFF00BF1837BD4680BD80B5EE
:1011CC0082B000AF78607868FFF7B0FF034618462E
:1011DC000837BD4680BD000080B48BB000AF78608E
:1011EC00396000237B6200233B6269E101227B6A48
:1011FC0002FA03F3FB613B681B68FA691340BB619D
:10120C00BA69FB699A4240F058813B685B689A4A1C
:10121C0093425ED0984A934275D8984A934258D0DC
:10122C00964A93426FD8964A934252D0944A93422C
:10123C0069D8944A93424CD0924A934263D8924ACA
:10124C00934246D0904A93425DD8122B2AD8122B47
:10125C0059D801A252F823F0DF120008B912000885
:10126C00CB1200080D130008131300081313000809
:10127C0013130008131300081313000813130008AA
:10128C00131300081313000813130008131300089A
:10129C00131300081313000813130008C1120008DD
:1012AC00D5120008794A934213D02CE03B68DB68D6
:1012BC003B6229E03B68DB6804333B6224E03B681B
:1012CC00DB6808333B621FE03B68DB680C333B6236
:1012DC001AE03B689B68002B02D104233B6213E0AD
:1012EC003B689B68012B05D108233B627B68FA693C
:1012FC001A6109E008233B627B68FA695A6103E0D2
:10130C0000233B6200E000BFBB69FF2B01D87B6868
:10131C0001E07B6804337B61BB69FF2B02D87B6ADD
:10132C009B0002E07B6A083B9B003B617B691A686F
:10133C000F213B6901FA03F3DB431A40396A3B691D
:10134C0001FA03F31A437B691A603B685B6803F08C
:10135C008053002B00F0B1804D4B9B694C4A43F0FD
:10136C00010393614A4B9B6903F00103BB60BB68AB
:10137C00484A7B6A9B08023352F82330FB607B6A35
:10138C0003F003039B000F2202FA03F3DB43FA681A
:10139C001340FB607B68404A934213D07B683F4A02
:1013AC0093420DD07B683E4A934207D07B683D4AFE
:1013BC00934201D1032306E0042304E0022302E05C
:1013CC00012300E000237A6A02F0030292009340AA
:1013DC00FA681343FB602F497B6A9B080233FA6857
:1013EC0041F823203B685B6803F48013002B06D084
:1013FC002D4B9A682C49BB6913438B6006E02A4B32
:10140C009A68BB69DB43284913408B603B685B6877
:10141C0003F40013002B06D0234BDA682249BB6976
:10142C001343CB6006E0204BDA68BB69DB431E49F3
:10143C001340CB603B685B6803F40033002B06D091
:10144C00194B5A681849BB6913434B6006E0164B9D
:10145C005A68BB69DB43144913404B603B685B68BB
:10146C0003F48033002B21D00F4B1A680E49BB6953
:10147C0013430B6021E000BF00003210000031105C
:10148C0000002210000021100000121000001110AA
:10149C00001002400000014000080140000C014017
:1014AC000010014000140140000401400B4B1A686D
:1014BC00BB69DB43094913400B607B6A01337B62D8
:1014CC003B681A687B6A22FA03F3002B7FF48EAE1A
:1014DC0000BF00BF2C37BD4680BC704700040140E4
:1014EC0080B586B000AF78607B68002B01D10123FA
:1014FC0072E27B681B6803F00103002B00F087800D
:10150C00924B5B6803F00C03042B0CD08F4B5B6885
:10151C0003F00C03082B12D18C4B5B6803F4803363
:10152C00B3F5803F0BD1894B1B6803F40033002BC0
:10153C006CD07B685B68002B68D101234CE27B6824
:10154C005B68B3F5803F06D1804B1B687F4A43F440
:10155C00803313602EE07B685B68002B0CD17B4BD7
:10156C001B687A4A23F480331360784B1B68774AE4
:10157C0023F4802313601DE07B685B68B3F5A02F18
:10158C000CD1724B1B68714A43F4802313606F4B70
:10159C001B686E4A43F4803313600BE06B4B1B6883
:1015AC006A4A23F480331360684B1B68674A23F440
:1015BC00802313607B685B68002B13D0FFF71EFD44
:1015CC00386108E0FFF71AFD02463B69D31A642B19
:1015DC0001D9032300E25D4B1B6803F40033002B9D
:1015EC00F0D014E0FFF70AFD386108E0FFF706FDC4
:1015FC0002463B69D31A642B01D90323ECE1534B0C
:10160C001B6803F40033002BF0D100E000BF7B68B3
:10161C001B6803F00203002B63D04C4B5B6803F098
:10162C000C03002B0BD0494B5B6803F00C03082B0D
:10163C001CD1464B5B6803F48033002B16D1434B13
:10164C001B6803F00203002B05D07B681B69012B80
:10165C0001D00123C0E13D4B1B6823F0F8027B68ED
:10166C005B69DB00394913430B603AE07B681B690B
:10167C00002B20D0364B01221A60FFF7BFFC3861DB
:10168C0008E0FFF7BBFC02463B69D31A022B01D9D9
:10169C000323A1E12D4B1B6803F00203002BF0D0B8
:1016AC002A4B1B6823F0F8027B685B69DB00274937
:1016BC0013430B6015E0264B00221A60FFF79EFCCB
:1016CC00386108E0FFF79AFC02463B69D31A022BFB
:1016DC0001D9032380E11D4B1B6803F00203002B8F
:1016EC00F0D17B681B6803F00803002B3AD07B68B1
:1016FC009B69002B19D0174B01221A60FFF77EFC57
:10170C00386108E0FFF77AFC02463B69D31A022BDA
:10171C0001D9032360E10D4B5B6A03F00203002B3C
:10172C00F0D0012000F09CFA1CE00A4B00221A6059
:10173C00FFF764FC38610FE0FFF760FC02463B6981
:10174C00D31A022B08D9032346E100BF0010024034
:10175C000000424280044242924B5B6A03F0020357
:10176C00002BE9D17B681B6803F00403002B00F00D
:10177C00A6800023FB758B4BDB6903F08053002B99
:10178C000DD1884BDB69874A43F08053D361854B7D
:10179C00DB6903F08053BB60BB680123FB75824B94
:1017AC001B6803F48073002B18D17F4B1B687E4A97
:1017BC0043F480731360FFF721FC386108E0FFF7F6
:1017CC001DFC02463B69D31A642B01D9032303E1A8
:1017DC00754B1B6803F48073002BF0D07B68DB68BF
:1017EC00012B06D16F4B1B6A6E4A43F00103136247
:1017FC002DE07B68DB68002B0CD16A4B1B6A694AB5
:10180C0023F001031362674B1B6A664A23F004033F
:10181C0013621CE07B68DB68052B0CD1614B1B6AE7
:10182C00604A43F0040313625E4B1B6A5D4A43F04B
:10183C00010313620BE05B4B1B6A5A4A23F0010352
:10184C001362584B1B6A574A23F0040313627B68DC
:10185C00DB68002B15D0FFF7D1FB38610AE0FFF7EE
:10186C00CDFB02463B69D31A41F28832934201D92F
:10187C000323B1E04B4B1B6A03F00203002BEED0A9
:10188C0014E0FFF7BBFB38610AE0FFF7B7FB024639
:10189C003B69D31A41F28832934201D903239BE06E
:1018AC00404B1B6A03F00203002BEED1FB7D012B96
:1018BC0005D13C4BDB693B4A23F08053D3617B68F9
:1018CC00DB69002B00F08780364B5B6803F00C0360
:1018DC00082B61D07B68DB69022B46D1334B00228D
:1018EC001A60FFF78BFB386108E0FFF787FB0246B5
:1018FC003B69D31A022B01D903236DE0294B1B68DA
:10190C0003F00073002BF0D17B681B6AB3F5803FAA
:10191C0008D1244B5B6823F400327B689B68214917
:10192C0013434B601F4B5B6823F474127B68196A7A
:10193C007B685B6A0B431B4913434B601B4B0122B7
:10194C001A60FFF75BFB386108E0FFF757FB0246B4
:10195C003B69D31A022B01D903233DE0114B1B68C1
:10196C0003F00073002BF0D035E0104B00221A600E
:10197C00FFF744FB386108E0FFF740FB02463B6988
:10198C00D31A022B01D9032326E0064B1B6803F064
:10199C000073002BF0D11EE07B68DB69012B07D1B3
:1019AC00012319E000100240007000406000424228
:1019BC000B4B5B68FB60FB6803F480327B681B6A33
:1019CC009A4206D1FB6803F470127B685B6A9A42F8
:1019DC0001D0012300E0002318461837BD4680BD16
:1019EC000010024080B584B000AF786039607B682D
:1019FC00002B01D10123D0E06A4B1B6803F00703D5
:101A0C003A689A4210D9674B1B6823F00702654964
:101A1C003B6813430B60634B1B6803F007033A6886
:101A2C009A4201D00123B8E07B681B6803F00203E3
:101A3C00002B20D07B681B6803F00403002B05D01F
:101A4C00594B5B68584A43F4E06353607B681B68EE
:101A5C0003F00803002B05D0534B5B68524A43F448
:101A6C0060535360504B5B6823F0F0027B689B68BB
:101A7C004D4913434B607B681B6803F00103002B3B
:101A8C0040D07B685B68012B07D1474B1B6803F484
:101A9C000033002B15D101237FE07B685B68022BA0
:101AAC0007D1414B1B6803F00073002B09D10123B4
:101ABC0073E03D4B1B6803F00203002B01D10123A3
:101ACC006BE0394B5B6823F003027B685B6836493B
:101ADC0013434B60FFF792FAF8600AE0FFF78EFAB7
:101AEC000246FB68D31A41F28832934201D9032390
:101AFC0053E02D4B5B6803F00C027B685B689B002A
:101B0C009A42EBD1274B1B6803F007033A689A42C1
:101B1C0010D2244B1B6823F0070222493B68134365
:101B2C000B60204B1B6803F007033A689A4201D004
:101B3C00012332E07B681B6803F00403002B08D000
:101B4C00194B5B6823F4E0627B68DB68164913432E
:101B5C004B607B681B6803F00803002B09D0124B09
:101B6C005B6823F460527B681B69DB000E491343EE
:101B7C004B6000F021F802460B4B5B681B0903F02D
:101B8C000F030A49CB5C22FA03F3094A1360094B91
:101B9C001B681846FFF7F0F9002318461037BD46AE
:101BAC0080BD00BF002002400010024094330008AA
:101BBC00040000200800002080B487B000AF002390
:101BCC00FB600023BB6000237B6100237B60002350
:101BDC003B611E4B5B68FB60FB6803F00C03042B42
:101BEC0002D0082B03D027E0194B3B6127E0FB68A0
:101BFC009B0C03F00F03174AD35C7B60FB6803F468
:101C0C008033002B10D0114B5B685B0C03F001038D
:101C1C00114AD35CBB607B680D4A03FB02F2BB68C4
:101C2C00B2FBF3F37B6104E07B680C4A02FB03F329
:101C3C007B617B693B6102E0054B3B6100BF3B690B
:101C4C0018461C37BD4680BC704700BF00100240D0
:101C5C0000127A00A4330008B433000800093D00D8
:101C6C0080B485B000AF78600A4B1B680A4AA2FBAF
:101C7C0003235B0A7A6802FB03F3FB6000BFFB687B
:101C8C005A1EFA60002BF9D100BF00BF1437BD46B5
:101C9C0080BC704704000020D34D621080B582B028
:101CAC0000AF78607B68002B01D1012341E07B6899
:101CBC0093F83D30DBB2002B06D17B68002283F811
:101CCC003C207868FEF7EEFE7B68022283F83D200C
:101CDC007B681A687B6804331946104600F092F949
:101CEC007B68012283F846207B68012283F83E2022
:101CFC007B68012283F83F207B68012283F8402017
:101D0C007B68012283F841207B68012283F8422002
:101D1C007B68012283F843207B68012283F84420EE
:101D2C007B68012283F845207B68012283F83D20E3
:101D3C00002318460837BD4680BD000080B584B02E
:101D4C0000AF786039603B68002B09D17B6893F851
:101D5C003E30DBB2012B14BF01230023DBB222E0A7
:101D6C003B68042B09D17B6893F83F30DBB2012B25
:101D7C0014BF01230023DBB215E03B68082B09D10B
:101D8C007B6893F84030DBB2012B14BF0123002396
:101D9C00DBB208E07B6893F84130DBB2012B14BF57
:101DAC0001230023DBB2002B01D001235EE03B6852
:101DBC00002B04D17B68022283F83E2013E03B68A1
:101DCC00042B04D17B68022283F83F200BE03B6894
:101DDC00082B04D17B68022283F8402003E07B6847
:101DEC00022283F841207B681B680122396818465F
:101DFC0000F0FEFA7B681B681E4A934207D17B6891
:101E0C001B685A6C7B681B6842F400425A647B68FE
:101E1C001B68184A93420ED07B681B68B3F1804F45
:101E2C0009D07B681B68144A934204D07B681B68FA
:101E3C00124A934211D17B681B689B6803F007031D
:101E4C00FB60FB68062B10D07B681B681A687B68EC
:101E5C001B6842F001021A6007E07B681B681A6875
:101E6C007B681B6842F001021A6000231846103789
:101E7C00BD4680BD002C014000040040000800401D
:101E8C0080B586B000AFF860B9607A600023FB754E
:101E9C00FB6893F83C30012B01D10223AEE0FB68C8
:101EAC00012283F83C207B680C2B00F29F8001A25E
:101EBC0052F823F0F51E0008F91F0008F91F00085E
:101ECC00F91F0008351F0008F91F0008F91F00084A
:101EDC00F91F0008771F0008F91F0008F91F0008F8
:101EEC00F91F0008B71F0008FB681B68B968184683
:101EFC0000F0F6F8FB681B689A69FB681B6842F0F7
:101F0C0008029A61FB681B689A69FB681B6822F0DF
:101F1C0004029A61FB681B689969BB681A69FB68C3
:101F2C001B680A439A6164E0FB681B68B968184631
:101F3C0000F03CF9FB681B689A69FB681B6842F46B
:101F4C0000629A61FB681B689A69FB681B6822F443
:101F5C0080629A61FB681B689969BB681B691A02ED
:101F6C00FB681B680A439A6143E0FB681B68B9680D
:101F7C00184600F085F9FB681B68DA69FB681B687A
:101F8C0042F00802DA61FB681B68DA69FB681B68BF
:101F9C0022F00402DA61FB681B68D969BB681A6914
:101FAC00FB681B680A43DA6123E0FB681B68B968AD
:101FBC00184600F0CFF9FB681B68DA69FB681B68F0
:101FCC0042F40062DA61FB681B68DA69FB681B6823
:101FDC0022F48062DA61FB681B68D969BB681B69F3
:101FEC001A02FB681B680A43DA6102E00123FB75E5
:101FFC0000BFFB68002283F83C20FB7D1846183795
:10200C00BD4680BD80B485B000AF786039607B6818
:10201C001B68FB607B682F4A93420BD07B68B3F143
:10202C00804F07D07B682C4A934203D07B682B4AA5
:10203C00934208D1FB6823F07003FB603B685B683C
:10204C00FA681343FB607B68224A93420BD07B688F
:10205C00B3F1804F07D07B681F4A934203D07B6853
:10206C001E4A934208D1FB6823F44073FB603B6823
:10207C00DB68FA681343FB60FB6823F080023B6863
:10208C005B691343FB607B68FA681A603B689A686B
:10209C007B68DA623B681A687B689A627B680D4AD7
:1020AC00934203D13B681A697B681A637B680122EF
:1020BC005A617B681B6903F00103002B05D07B6818
:1020CC001B6923F001027B681A6100BF1437BD46FF
:1020DC0080BC7047002C0140000400400008004008
:1020EC0080B487B000AF786039607B681B6A7B6115
:1020FC007B681B6A23F001027B681A627B685B6851
:10210C003B617B689B69FB60FB6823F07003FB60A1
:10211C00FB6823F00303FB603B681B68FA681343FE
:10212C00FB607B6923F002037B613B689B687A69E7
:10213C0013437B617B681C4A93420CD17B6923F06F
:10214C0008037B613B68DB687A6913437B617B69BD
:10215C0023F004037B617B68134A934211D13B69E2
:10216C0023F480733B613B6923F400733B613B6850
:10217C005B693A6913433B613B689B693A6913435A
:10218C003B617B683A695A607B68FA689A613B6884
:10219C005A687B685A637B687A691A6200BF1C377D
:1021AC00BD4680BC704700BF002C014080B487B096
:1021BC0000AF786039607B681B6A7B617B681B6A47
:1021CC0023F010027B681A627B685B683B617B685A
:1021DC009B69FB60FB6823F4E043FB60FB6823F422
:1021EC004073FB603B681B681B02FA681343FB607F
:1021FC007B6923F020037B613B689B681B017A6938
:10220C0013437B617B681D4A93420DD17B6923F09C
:10221C0080037B613B68DB681B017A6913437B613C
:10222C007B6923F040037B617B68144A934213D192
:10223C003B6923F480633B613B6923F400633B619E
:10224C003B685B699B003A6913433B613B689B6944
:10225C009B003A6913433B617B683A695A607B681F
:10226C00FA689A613B685A687B689A637B687A69FA
:10227C001A6200BF1C37BD4680BC7047002C014061
:10228C0080B487B000AF786039607B681B6A7B6173
:10229C007B681B6A23F480727B681A627B685B68BC
:1022AC003B617B68DB69FB60FB6823F07003FB60C0
:1022BC00FB6823F00303FB603B681B68FA6813435D
:1022CC00FB607B6923F400737B613B689B681B029A
:1022DC007A6913437B617B681D4A93420DD17B69FC
:1022EC0023F400637B613B68DB681B027A69134350
:1022FC007B617B6923F480637B617B68144A934226
:10230C0013D13B6923F480533B613B6923F40053A5
:10231C003B613B685B691B013A6913433B613B685A
:10232C009B691B013A6913433B617B683A695A60AC
:10233C007B68FA68DA613B685A687B68DA637B68A9
:10234C007A691A6200BF1C37BD4680BC704700BF5B
:10235C00002C014080B487B000AF786039607B6896
:10236C001B6A3B617B681B6A23F480527B681A6290
:10237C007B685B687B617B68DB69FB60FB6823F4D3
:10238C00E043FB60FB6823F44073FB603B681B6815
:10239C001B02FA681343FB603B6923F400533B6157
:1023AC003B689B681B033A6913433B617B680F4A8C
:1023BC00934209D17B6923F480437B613B685B6961
:1023CC009B017A6913437B617B687A695A607B68ED
:1023DC00FA68DA613B685A687B681A647B683A6908
:1023EC001A6200BF1C37BD4680BC7047002C0140F0
:1023FC0080B487B000AFF860B9607A60BB6803F056
:10240C001F03012202FA03F37B61FB681A6A7B69E2
:10241C00DB431A40FB681A62FB681A6ABB6803F05C
:10242C001F03796801FA03F31A43FB681A6200BFB1
:10243C001C37BD4680BC704780B584B000AF786057
:10244C0039603B68002B09D17B6893F84230DBB2D2
:10245C00012B14BF01230023DBB222E03B68042BC9
:10246C0009D17B6893F84330DBB2012B14BF0123F5
:10247C000023DBB215E03B68082B09D17B6893F88D
:10248C004430DBB2012B14BF01230023DBB208E084
:10249C007B6893F84530DBB2012B14BF012300237A
:1024AC00DBB2002B01D0012359E03B68002B04D197
:1024BC007B68022283F8422013E03B68042B04D192
:1024CC007B68022283F843200BE03B68082B04D185
:1024DC007B68022283F8442003E07B68022283F8A5
:1024EC0045207B681B6804223968184600F0F1F817
:1024FC007B681B685A6C7B681B6842F400425A6408
:10250C007B681B68184A93420ED07B681B68B3F13A
:10251C00804F09D07B681B68144A934204D07B68B7
:10252C001B68134A934211D17B681B689B6803F0AC
:10253C000703FB60FB68062B10D07B681B681A68CE
:10254C007B681B6842F001021A6007E07B681B681D
:10255C001A687B681B6842F001021A600023184657
:10256C001037BD4680BD00BF002C01400004004068
:10257C000008004080B485B000AF786039607B689B
:10258C0093F83C30012B01D1022346E07B680122F9
:10259C0083F83C207B68022283F83D207B681B6813
:1025AC005B68FB607B681B689B68BB60FB6823F007
:1025BC007003FB603B681B68FA681343FB607B6825
:1025CC001B68FA685A607B681B68164A93420ED0E7
:1025DC007B681B68B3F1804F09D07B681B68124A7B
:1025EC00934204D07B681B68104A93420CD1BB68A1
:1025FC0023F08003BB603B685B68BA681343BB6025
:10260C007B681B68BA689A607B68012283F83D205E
:10261C007B68002283F83C20002318461437BD4603
:10262C0080BC7047002C01400004004000080040B2
:10263C0080B485B000AF786039600023FB607B68A4
:10264C0093F83C30012B01D102233DE07B68012241
:10265C0083F83C20FB6823F0FF023B68DB681343E4
:10266C00FB60FB6823F440723B689B681343FB6080
:10267C00FB6823F480623B685B681343FB60FB6878
:10268C0023F400623B681B681343FB60FB6823F474
:10269C0080523B681B691343FB60FB6823F40052B8
:1026AC003B685B691343FB60FB6823F480423B6827
:1026BC00DB691343FB607B681B68FA685A647B68B0
:1026CC00002283F83C20002318461437BD4680BCFA
:1026DC00704780B487B000AFF860B9607A60BB68AF
:1026EC0003F00F03042202FA03F37B61FB681A6AFE
:1026FC007B69DB431A40FB681A62FB681A6ABB6889
:10270C0003F00F03796801FA03F31A43FB681A62AA
:10271C0000BF1C37BD4680BC704703460244934241
:10272C0000D1704703F8011BF9E7000070B50026D3
:10273C000C4D0D4C641BA410A64209D100F018FEE0
:10274C0000260A4D0A4C641BA410A64205D170BD8C
:10275C0055F8043B98470136EEE755F8043B98478B
:10276C000136F2E7883700088837000888370008F8
:10277C008C37000807B51A4A20F0004393420146F3
:10278C0005D8002103B05DF804EB00F065B8B3F197
:10279C00FF4F04D3FDF7D8FC03B05DF804FB69468A
:1027AC0000F050F900F00302012A07D0022A0CD0E5
:1027BC0082B90199009800F04FF8EDE70199009863
:1027CC0000F0CAF800F10040E6E70199009800F02B
:1027DC0043F8F7E701220199009800F0BDF8DBE718
:1027EC00D80F493F07B51B4A20F0004393420146DE
:1027FC0006D80022002103B05DF804EB00F0ACB861
:10280C00B3F1FF4F04D3FDF79FFC03B05DF804FB5D
:10281C00694600F017F900F00300012808D00228DF
:10282C000BD090B901220199009800F095F8ECE7D3
:10283C000199009800F010F8E7E70122019900983F
:10284C0000F08AF800F10040DFE70199009800F0F1
:10285C0003F8F7E7D80F493F2DE9F04120F0004588
:10286C00B5F1485F0646884603D2FDF73DFF0028C8
:10287C005CD031463046FDF771FD4FF07C5104467B
:10288C00FDF76CFD2B4907462046FDF767FD2A49ED
:10289C00FDF75CFC2146FDF761FD2849FDF754FC72
:1028AC002146FDF75BFD2649FDF750FC2146FDF75F
:1028BC0055FD2449FDF748FC2146FDF74FFD224903
:1028CC00FDF744FC2146FDF749FD2146FDF746FD89
:1028DC00414604463046FDF741FD01462046FDF7D2
:1028EC0033FC1A4B04469D420AD801463846FDF784
:1028FC002BFC01464FF07E50FDF726FCBDE8F08125
:10290C00134B4FF07E509D428CBF124D05F17F450D
:10291C002946FDF719FC294606463846FDF714FCF6
:10292C002146FDF711FC01463046E5E74FF07E509D
:10293C00E4E700BF4ED747ADF6740F317CF2933409
:10294C00010DD037610BB63AABAA2A3D9999993E45
:10295C000000483F0000903E2DE9F84320F0004372
:10296C00B3F1485F04460F46914603D2FDF7BCFE17
:10297C00002835D021462046FDF7F0FC05460146DF
:10298C002046FDF7EBFC294906462846FDF7E6FCF8
:10299C002749FDF7D9FB2946FDF7E0FC2549FDF752
:1029AC00D5FB2946FDF7DAFC2349FDF7CDFB29467B
:1029BC00FDF7D4FC2149FDF7C9FB8046B9F1000FA6
:1029CC0011D101462846FDF7C9FC1D49FDF7BCFB9A
:1029DC003146FDF7C3FC01462046FDF7B7FB044624
:1029EC002046BDE8F8834FF07C513846FDF7B6FC25
:1029FC00414681463046FDF7B1FC01464846FDF79D
:102A0C00A3FB2946FDF7AAFC3946FDF79DFB0C49B3
:102A1C0005463046FDF7A2FC01462846FDF796FB1D
:102A2C0001462046FDF790FBD9E700BFD3C92E2FF6
:102A3C00342FD7321BEF3836010D50398988083CBA
:102A4C00ABAA2A3E2DE9F04FA44A20F0004890454D
:102A5C000C46824687B004D8002308604B600025E2
:102A6C001DE09F4A90454FD820F0004500289D4915
:102A7C009D4F25F00F0524DDFDF766FBBD42064694
:102A8C0011D09A49FDF760FB014605463046FDF72B
:102A9C005BFB9649FDF758FB2560012560602846D5
:102AAC0007B0BDE8F08F9249FDF74EFB9149064601
:102ABC00FDF74AFB014605463046FDF745FB8D49BF
:102ACC00E8E7FDF743FBBD4206460FD08749FDF70B
:102ADC003DFB014605463046FDF736FB8349FDF7C5
:102AEC0035FB256060604FF0FF35D8E78049FDF776
:102AFC002DFB80490646FDF729FB0146054630466D
:102B0C00FDF722FB7B49EAE77B4A904500F2958072
:102B1C0000F0FEF879490646FDF720FC4FF07C5199
:102B2C00FDF714FBFDF7E0FD0546FDF7C3FB6D4912
:102B3C008146FDF713FC01463046FDF705FB6B495A
:102B4C0007464846FDF70AFC1F2D06460EDC6C4A6C
:102B5C00691E52F821202AF0004323F0FF03934210
:102B6C0004D031463846FDF7EFFA0BE031463846D3
:102B7C00FDF7EAFAC0F3C753C3EBD853082B4FEA5F
:102B8C00E85B01DC206026E059494846FDF7E6FB8E
:102B9C00064601463846FDF7D7FA014680463846C8
:102BAC00FDF7D2FA3146FDF7CFFA064651494846B1
:102BBC00FDF7D4FB3146FDF7C7FA01460646404601
:102BCC00FDF7C2FAC0F3C753ABEB030BBBF1190F04
:102BDC0018DC47462060D4F8008038464146FDF7A3
:102BEC00B3FA3146FDF7B0FABAF1000F6060BFF6E8
:102BFC0056AF08F1004800F10040C4F80080606056
:102C0C006D424CE73F494846FDF7A8FB0646014696
:102C1C004046FDF799FA014607464046FDF794FAFF
:102C2C003146FDF791FA064637494846FDF796FBC3
:102C3C003146FDF789FA064693E7B8F1FF4F05D305
:102C4C000146FDF781FA6060206008E74FEAE8561C
:102C5C00863EA8EBC6584046FDF746FDFDF72AFB1D
:102C6C00014603904046FDF76FFA4FF08741FDF7A0
:102C7C0075FB0746FDF738FDFDF71CFB014604907C
:102C8C0005463846FDF760FA4FF08741FDF766FBC5
:102C9C0000210590FDF7F6FCF0B100212846FDF768
:102CAC00F1FC002814BF01230223184A214601928B
:102CBC00022203A80092324600F02EF8BAF1000F5F
:102CCC000546BFF6ECAE236803F10043236063684E
:102CDC0003F10043636093E70323E6E7D80F493F12
:102CEC00E3CB1640800FC93FD00FC93F4344353763
:102CFC000044353708A3852E800F494384F9223FC1
:102D0C00B833000800A3852E32318D2438340008E6
:102D1C0020F00040704700002DE9F04FDBB002922C
:102D2C000493649AAC4B059053F8223000910193B4
:102D3C00049B013B0393029B1A1DC0F29980DC1E7D
:102D4C0048BF1C1DE41000254FF0000B671CFB0056
:102D5C000693029B039AA3EBC707019BA4EB020803
:102D6C0003EB0209659B1EAE03EB880A4D4540F34D
:102D7C008180049A1EAB03EB82054FF000090023FF
:102D8C000DF58C7A019A914540F39A8013460AAA64
:102D9C0002EB83030893659B03EB8403019C07936D
:102DAC000DF12808464625464FF087495AAB03EBF0
:102DBC00840353F850BC0DF58C7A002D00F38580FC
:102DCC003946584600F046FA4FF078510546FDF763
:102DDC00C5FA00F08BFA4FF08241FDF7BFFA0146BD
:102DEC002846FDF7B1F90546FDF77EFC0646FDF7D2
:102DFC0061FA01462846FDF7A7F9002F814640F3FA
:102E0C008180621E0AAB53F82250C7F1080145FAC3
:102E1C0001F31E448B40ED1A0AAB43F82250C7F164
:102E2C0007031D41002D7ADD0022924601369442A3
:102E3C0000F3AA80002F05DD012F00F0B680022FD1
:102E4C0000F0BD80022D6AD149464FF07E50FDF74F
:102E5C007BF98146BAF1000F61D039464FF07E50B4
:102E6C0000F0F8F901464846FDF76EF9814656E048
:102E7C00002468E718EB050F07D45AF82500FDF776
:102E8C0019FA46F8040B013570E75846F9E7079331
:102E9C00059B5BF8041D53F82800FDF75FFA01460B
:102EAC003046FDF753F90646079B08F10108039AD3
:102EBC009045ECDD4AF8046B09F10109043561E732
:102ECC00AB461E464FF00008F1E74FF06E515846E6
:102EDC00FDF744FAFDF708FCFDF7ECF949460990BB
:102EEC00FDF73CFA01465846FDF72EF9FDF7FCFBC1
:102EFC00013D46F8040B5AF825100998FDF726F900
:102F0C0083465AE705D1631E0AAA52F82350ED11E5
:102F1C0088E74FF07C51FDF7D3FB054690BB0021B1
:102F2C004846FDF7AFFB002800F090800022631E9E
:102F3C0001998B424ADA002A76D0013C0AAB53F84D
:102F4C002430083F002BF8D039464FF07E5000F06B
:102F5C0081F9A24607464FF06E590DF58C78BAF1FF
:102F6C00000F80F2A18027460022002FC0F2CB80F8
:102F7C0046A990464FF0000A184B01EB870BA4EBC7
:102F8C000709B4E002254FE758F8043BBAF1000FEB
:102F9C0008D123B1C3F5807348F8043C01239A4649
:102FAC00013244E7C3F1FF03F6E7621E0AAB53F8A4
:102FBC00223003F07F030AA941F8223042E7621E57
:102FCC000AAB53F8223003F03F03F4E70AA951F897
:102FDC002310013B0A43ABE77C370008503700084D
:102FEC00013352F8041D0029FAD0049A1EA9A21824
:102FFC00661C01EB82051C440DF58C79B442FFF67E
:10300C00CFAE079BAB4653F82600FDF753F94FF0B4
:10301C00000A4FF000082860039B9A4507DD49F829
:10302C00268004350136E9E70123089AD9E7059B88
:10303C005BF8040953F82A10FDF790F90146404655
:10304C00FDF784F80AF1010A8046E5E7069B029A2F
:10305C004846991A00F0FEF84FF087418046FDF77C
:10306C002FFBF8B14FF06E514046FDF777F9FDF7A5
:10307C003BFBFDF71FF94FF087418146FDF76EF9D9
:10308C0001464046FDF760F8FDF72EFB0AAB43F80E
:10309C002400484601340837FDF726FB0AAB43F8F9
:1030AC00240051E74046F7E70AAB53F82A00FDF736
:1030BC0001F93946FDF752F9494648F82A003846D5
:1030CC00FDF74CF90AF1FF3A074648E753F8040BB1
:1030DC005BF8041B03920293FDF740F9014640464E
:1030EC00FDF734F8DDE9023280460AF1010A019954
:1030FC008A4501DCCA45E9DD5AAB03EB890949F87D
:10310C00A08C013F31E7649B022B07DC002B4EDCCB
:10311C002ED006F007005BB0BDE8F08F649B032B4C
:10312C00F7D10DF1C80B0BEB8407B846A246BAF1E8
:10313C00000F49DCA146B9F1010F60DC0020012C25
:10314C0076DC329A339B002D78D100990A600A46BE
:10315C004B609060DDE757F82410FCF7F7FF013C5B
:10316C00002CF8DA0DB100F10040009B1860D0E79C
:10317C00002032AFF4E757F82810FCF7E7FF08F10E
:10318C00FF38B8F1000FF6DAADB100F10043009A48
:10319C00014613603298FCF7D7FF4FF00108444505
:1031AC000BDA0DB100F10040009B5860B1E7A0466E
:1031BC00002032AFE5E70346E9E757F8041FFCF7B8
:1031CC00C5FF08F10108EAE7D8F8003058F8042CDC
:1031DC001946104602930192FCF7B8FF019A01467A
:1031EC0081461046FCF7B0FF029B0AF1FF3A1946E4
:1031FC00FCF7ACFF48F80409C8F8009097E757F8BB
:10320C00043CD7F800A0184651460193FCF79EFFEA
:10321C00019B014680461846FCF796FF5146FCF789
:10322C0095FF47F8040909F1FF39C7F8008082E7D8
:10323C005BF82410FCF78AFF013C80E7009902F14F
:10324C00004203F100430A604B600A4600F1004063
:10325C007FE700BF30F0004238B503460D46044608
:10326C002ED0B2F1FF4F04D30146FCF76FFF03469B
:10327C0026E010F0FF4F18D14FF09841FDF76EF893
:10328C00174A034695420CDB0446C0F3C752193A61
:10329C004CF250318D420ADD1249184661F31E0082
:1032AC0000E01149FDF75AF8E1E7D20DF0E75119AA
:1032BC00FE29F1DC002905DD24F0FF4444EAC1536A
:1032CC00184638BD11F1160F01DA0749E5E701F18F
:1032DC00190024F0FF444FF04C5144EAC050E1E790
:1032EC00B03CFFFFCAF249716042A20D70B5C0F349
:1032FC00C7557F3D162D0146044620F0004626DCBE
:10330C00002D0FDA1749FCF721FF0021FDF7E2F938
:10331C0030B1002C23DA002E134C08BF4FF00044C0
:10332C0021461AE0114E2E41304216D00D49FCF7C1
:10333C000DFF0021FDF7CEF90028F1D0002CBEBF07
:10334C004FF400032B41E41824EA0604E8E7B6F135
:10335C00FF4F02D3FCF7FAFE0146084670BD00246D
:10336C00DEE700BFCAF24971000080BFFFFF7F009B
:10337C00F8B500BFF8BC08BC9E467047F8B500BF56
:08338C00F8BC08BC9E46704726
:103394000000000000000000010203040607080901
:1033A40002030405060708090A0B0C0D0E0F101082
:1033B40001020000000FC93F000F494000CB9640B6
:1033C400000FC9400053FB4000CB164100ED2F41D4
:1033D400000F49410031624100537B41003A8A4168
:1033E40000CB9641005CA34100EDAF41007EBC419F
:1033F400000FC94100A0D5410031E24100C2EE41B5
:103404000053FB4100F20342003A0A420083104297
:1034140000CB164200141D42005C234200A5294241
:1034240000ED2F4200363642007E3C4200C7424245
:10343400000F4942A2000000F900000083000000D0
:103444006E0000004E000000440000001500000063
:1034540029000000FC0000002700000057000000C5
:10346400D1000000F500000034000000DD00000081
:10347400C0000000DB0000006200000095000000B6
:10348400990000003C000000430000009000000090
:1034940041000000FE000000510000006300000035
:1034A400AB000000DE000000BB000000C50000000F
:1034B40061000000B7000000240000006E0000005E
:1034C4003A000000420000004D000000D20000005D
:1034D400E000000006000000490000002E0000008B
:1034E400EA00000009000000D10000009200000082
:1034F4001C000000FE0000001D000000EB000000A6
:103504001C000000B100000029000000A70000001A
:103514003E000000E80000008200000035000000CA
:10352400F50000002E000000BB0000004400000075
:1035340084000000E90000009C000000700000000E
:1035440026000000B40000005F0000007E000000C0
:10355400410000003900000091000000D600000086
:10356400390000008300000053000000390000000F
:10357400F40000009C000000840000005F000000D4
:103584008B000000BD000000F900000028000000CE
:103594003B0000001F000000F8000000970000003E
:1035A400FF000000DE00000005000000980000009D
:1035B4000F000000EF0000002F00000011000000C9
:1035C4008B0000005A0000000A0000006D0000009B
:1035D4001F0000006D000000360000007E000000A7
:1035E400CF00000027000000CB000000090000000D
:1035F400B70000004F000000460000003F0000003C
:10360400660000009E0000005F000000EA00000069
:103614002D0000007500000027000000BA00000023
:10362400C7000000EB000000E5000000F10000000E
:103634007B0000003D00000007000000390000008E
:10364400F70000008A000000520000009200000011
:10365400EA0000006B000000FB0000005F000000B7
:10366400B10000001F0000008D0000005D0000009C
:1036740008000000560000000300000030000000B5
:1036840046000000FC0000007B0000006B0000000E
:10369400AB000000F0000000CF000000BC00000000
:1036A400200000009A000000F40000003600000032
:1036B4001D000000A9000000E300000091000000CC
:1036C400610000005E000000E60000001B00000036
:1036D400080000006500000099000000850000005B
:1036E4005F00000014000000A0000000680000005B
:1036F400400000008D000000FF000000D800000022
:10370400800000004D00000073000000270000004E
:103714003100000006000000060000001500000053
:1037240056000000CA00000073000000A80000005A
:10373400C900000060000000E20000007B000000FF
:10374400C00000008C0000006B0000000000C93FB6
:103754000000F0390000DA370000A2330000842EA4
:103764000000502B0000C2270000D0220000C41F1C
:103774000000C61B000044170400000007000000FE
:043784000900000038
:043788003101000803
:04378C000D01000823
:103790000000484200127A00100000000100000002
:0400000508000F0DD3
:00000001FF
